{
  "contractName": "InvestmentVehicle",
  "abi": [
    {
      "constant": true,
      "inputs": [],
      "name": "TotalInvestors",
      "outputs": [
        {
          "name": "",
          "type": "uint256"
        }
      ],
      "payable": false,
      "stateMutability": "view",
      "type": "function"
    },
    {
      "constant": true,
      "inputs": [],
      "name": "_totalAmount",
      "outputs": [
        {
          "name": "",
          "type": "uint256"
        }
      ],
      "payable": false,
      "stateMutability": "view",
      "type": "function"
    },
    {
      "constant": true,
      "inputs": [
        {
          "name": "",
          "type": "uint256"
        }
      ],
      "name": "investors",
      "outputs": [
        {
          "name": "InvestorAddrs",
          "type": "address"
        },
        {
          "name": "registerDate",
          "type": "uint256"
        }
      ],
      "payable": false,
      "stateMutability": "view",
      "type": "function"
    },
    {
      "constant": true,
      "inputs": [
        {
          "name": "",
          "type": "address"
        }
      ],
      "name": "_AddrsToInvestorNo",
      "outputs": [
        {
          "name": "",
          "type": "uint256"
        }
      ],
      "payable": false,
      "stateMutability": "view",
      "type": "function"
    },
    {
      "inputs": [
        {
          "name": "_token",
          "type": "address"
        },
        {
          "name": "_tokensNeeded",
          "type": "uint256"
        }
      ],
      "payable": false,
      "stateMutability": "nonpayable",
      "type": "constructor"
    },
    {
      "anonymous": false,
      "inputs": [
        {
          "indexed": false,
          "name": "OwnerAddrs",
          "type": "address"
        },
        {
          "indexed": false,
          "name": "amount",
          "type": "uint256"
        },
        {
          "indexed": false,
          "name": "depositeDate",
          "type": "uint256"
        }
      ],
      "name": "InvestorTransaction",
      "type": "event"
    },
    {
      "constant": false,
      "inputs": [],
      "name": "registerInvestor",
      "outputs": [
        {
          "name": "",
          "type": "uint256"
        }
      ],
      "payable": false,
      "stateMutability": "nonpayable",
      "type": "function"
    },
    {
      "constant": true,
      "inputs": [],
      "name": "TokenHolderCount",
      "outputs": [
        {
          "name": "",
          "type": "uint256"
        }
      ],
      "payable": false,
      "stateMutability": "view",
      "type": "function"
    },
    {
      "constant": true,
      "inputs": [],
      "name": "totalTokensNeeded",
      "outputs": [
        {
          "name": "",
          "type": "uint256"
        }
      ],
      "payable": false,
      "stateMutability": "view",
      "type": "function"
    },
    {
      "constant": true,
      "inputs": [],
      "name": "totalSupply",
      "outputs": [
        {
          "name": "",
          "type": "uint256"
        }
      ],
      "payable": false,
      "stateMutability": "view",
      "type": "function"
    },
    {
      "constant": false,
      "inputs": [
        {
          "name": "_amount",
          "type": "uint256"
        }
      ],
      "name": "buyTokens",
      "outputs": [],
      "payable": true,
      "stateMutability": "payable",
      "type": "function"
    },
    {
      "constant": true,
      "inputs": [],
      "name": "InvestmentValue",
      "outputs": [
        {
          "name": "",
          "type": "uint256"
        }
      ],
      "payable": false,
      "stateMutability": "view",
      "type": "function"
    },
    {
      "constant": true,
      "inputs": [],
      "name": "InvestorDepositeDate",
      "outputs": [
        {
          "name": "",
          "type": "uint256"
        }
      ],
      "payable": false,
      "stateMutability": "view",
      "type": "function"
    },
    {
      "constant": true,
      "inputs": [],
      "name": "interest",
      "outputs": [
        {
          "name": "",
          "type": "uint256"
        }
      ],
      "payable": false,
      "stateMutability": "view",
      "type": "function"
    }
  ],
  "bytecode": "0x608060405234801561001057600080fd5b50604051604080610bf08339810180604052604081101561003057600080fd5b810190808051906020019092919080519060200190929190505050816000806101000a81548173ffffffffffffffffffffffffffffffffffffffff021916908373ffffffffffffffffffffffffffffffffffffffff160217905550806002819055505050610b4d806100a36000396000f3fe6080604052600436106100a75760003560e01c8063508d775311610064578063508d7753146102085780635b2b232714610233578063a97bd6d91461025e578063bba8bd20146102c3578063c392f766146102ee578063f12aaf2c14610319576100a7565b806311bf857a146100ac57806318160ddd146100d75780633610724e146101025780633bbeaab5146101305780633feb5f2b1461015b5780634b5e8d63146101dd575b600080fd5b3480156100b857600080fd5b506100c1610344565b6040518082815260200191505060405180910390f35b3480156100e357600080fd5b506100ec61034a565b6040518082815260200191505060405180910390f35b61012e6004803603602081101561011857600080fd5b81019080803590602001909291905050506103f3565b005b34801561013c57600080fd5b5061014561070c565b6040518082815260200191505060405180910390f35b34801561016757600080fd5b506101946004803603602081101561017e57600080fd5b8101908080359060200190929190505050610712565b604051808373ffffffffffffffffffffffffffffffffffffffff1673ffffffffffffffffffffffffffffffffffffffff1681526020018281526020019250505060405180910390f35b3480156101e957600080fd5b506101f2610763565b6040518082815260200191505060405180910390f35b34801561021457600080fd5b5061021d610861565b6040518082815260200191505060405180910390f35b34801561023f57600080fd5b50610248610941565b6040518082815260200191505060405180910390f35b34801561026a57600080fd5b506102ad6004803603602081101561028157600080fd5b81019080803573ffffffffffffffffffffffffffffffffffffffff169060200190929190505050610a21565b6040518082815260200191505060405180910390f35b3480156102cf57600080fd5b506102d8610a39565b6040518082815260200191505060405180910390f35b3480156102fa57600080fd5b50610303610a43565b6040518082815260200191505060405180910390f35b34801561032557600080fd5b5061032e610af1565b6040518082815260200191505060405180910390f35b60035481565b60008060009054906101000a900473ffffffffffffffffffffffffffffffffffffffff1673ffffffffffffffffffffffffffffffffffffffff166318160ddd6040518163ffffffff1660e01b815260040160206040518083038186803b1580156103b357600080fd5b505afa1580156103c7573d6000803e3d6000fd5b505050506040513d60208110156103dd57600080fd5b8101908080519060200190929190505050905090565b80341015610469576040517f08c379a00000000000000000000000000000000000000000000000000000000081526004018080602001828103825260158152602001807f6e6f7420656e6f7567682066756e64732073656e74000000000000000000000081525060200191505060405180910390fd5b600254816000809054906101000a900473ffffffffffffffffffffffffffffffffffffffff1673ffffffffffffffffffffffffffffffffffffffff166318160ddd6040518163ffffffff1660e01b815260040160206040518083038186803b1580156104d457600080fd5b505afa1580156104e8573d6000803e3d6000fd5b505050506040513d60208110156104fe57600080fd5b8101908080519060200190929190505050011115610567576040517f08c379a0000000000000000000000000000000000000000000000000000000008152600401808060200182810382526023815260200180610aff6023913960400191505060405180910390fd5b6000809054906101000a900473ffffffffffffffffffffffffffffffffffffffff1673ffffffffffffffffffffffffffffffffffffffff166340c10f1933836040518363ffffffff1660e01b8152600401808373ffffffffffffffffffffffffffffffffffffffff1673ffffffffffffffffffffffffffffffffffffffff16815260200182815260200192505050600060405180830381600087803b15801561060f57600080fd5b505af1158015610623573d6000803e3d6000fd5b50505050600160009054906101000a900473ffffffffffffffffffffffffffffffffffffffff1673ffffffffffffffffffffffffffffffffffffffff166108fc349081150290604051600060405180830381858888f1935050505015801561068f573d6000803e3d6000fd5b5060004290507fc9a0c3cc476d0f138f0c79da50a58870728b7fc582f0e1cceab439e3a794740d338383604051808473ffffffffffffffffffffffffffffffffffffffff1673ffffffffffffffffffffffffffffffffffffffff168152602001838152602001828152602001935050505060405180910390a15050565b60025481565b6004818154811061071f57fe5b90600052602060002090600202016000915090508060000160009054906101000a900473ffffffffffffffffffffffffffffffffffffffff16908060010154905082565b6000806001600460405180604001604052803373ffffffffffffffffffffffffffffffffffffffff168152602001428152509080600181540180825580915050906001820390600052602060002090600202016000909192909190915060008201518160000160006101000a81548173ffffffffffffffffffffffffffffffffffffffff021916908373ffffffffffffffffffffffffffffffffffffffff16021790555060208201518160010155505003905080600560003373ffffffffffffffffffffffffffffffffffffffff1673ffffffffffffffffffffffffffffffffffffffff168152602001908152602001600020819055508091505090565b60008060009054906101000a900473ffffffffffffffffffffffffffffffffffffffff1673ffffffffffffffffffffffffffffffffffffffff16633e854bbf336040518263ffffffff1660e01b8152600401808273ffffffffffffffffffffffffffffffffffffffff1673ffffffffffffffffffffffffffffffffffffffff16815260200191505060206040518083038186803b15801561090157600080fd5b505afa158015610915573d6000803e3d6000fd5b505050506040513d602081101561092b57600080fd5b8101908080519060200190929190505050905090565b60008060009054906101000a900473ffffffffffffffffffffffffffffffffffffffff1673ffffffffffffffffffffffffffffffffffffffff1663b38a8410336040518263ffffffff1660e01b8152600401808273ffffffffffffffffffffffffffffffffffffffff1673ffffffffffffffffffffffffffffffffffffffff16815260200191505060206040518083038186803b1580156109e157600080fd5b505afa1580156109f5573d6000803e3d6000fd5b505050506040513d6020811015610a0b57600080fd5b8101908080519060200190929190505050905090565b60056020528060005260406000206000915090505481565b6000600254905090565b6000806000809054906101000a900473ffffffffffffffffffffffffffffffffffffffff1673ffffffffffffffffffffffffffffffffffffffff1663c392f7666040518163ffffffff1660e01b815260040160206040518083038186803b158015610aad57600080fd5b505afa158015610ac1573d6000803e3d6000fd5b505050506040513d6020811015610ad757600080fd5b810190808051906020019092919050505090508091505090565b600060048054905090509056fe5468657265206d75737420626520656e6f75676820746f6b656e73206f6e2073616c65a165627a7a72305820b872cb1c17e0f1c237f8334e785ce1e8538fbf96975dc882a6e0c506f8edcd7b0029",
  "source": "pragma solidity ^0.5;\n\nimport \"./KhanyeziTokens.sol\";\n\ncontract InvestmentVehicle {\n\n/* Defines interface to the contract. */\n\n    KhanyeziTokens khanyeziTokens;\n\n\n    // call the owner of the contract SPV\n    address payable private _SPV; // will send funds to the wallet\n    uint256 public _totalAmount; // set a total amount needed every year we deploy a new contract\n    \n    constructor(address _token, uint256 _tokensNeeded) public {\n       khanyeziTokens = KhanyeziTokens(_token);\n       _totalAmount = _tokensNeeded;\n    }\n\n    uint public TotalInvestors;\n    \n    struct Investor {\n        address InvestorAddrs;\n        uint256 registerDate;\n    }\n    \n    Investor[] public investors;\n    \n    // owner address to investor number \"index\"\n    mapping (address => uint256) public _AddrsToInvestorNo;\n\n   \n    event InvestorTransaction (\n        address OwnerAddrs,\n        uint amount,\n        uint depositeDate\n    );\n    \n\n    // register investment, by updating the Investment struct from the KhanyeziTokens contract\n    function registerInvestor() public returns(uint) {\n        // get an instance of Investor using the input variables and push into the array of songs, returns the id\n\n        uint index = investors.push(Investor(msg.sender, now)) - 1;\n        \n        _AddrsToInvestorNo[msg.sender] = index; // to get the index for an address\n        // return the investor id\n        return index;\n  }\n\n    /* Returns the total number of holders of this currency. */\n    function TokenHolderCount() public view returns (uint256) {\n        return investors.length;\n    }\n    \n    function totalTokensNeeded() public view returns (uint256) {\n        return _totalAmount;\n    }\n    \n    function totalSupply() public view returns (uint256) {\n        return khanyeziTokens.totalSupply();\n    }\n    \n    // public so that investors can call the function and buy tokens\n    // as the investor purchases tokens, tokens are minted\n    function buyTokens(uint256 _amount) public payable {\n        require(msg.value >= _amount, \"not enough funds sent\");\n        require(khanyeziTokens.totalSupply() + _amount <= _totalAmount, \"There must be enough tokens on sale\");\n\n        // call the transfer function to transfer from tokens_contract specfic token to investor (msg.sender)\n        khanyeziTokens.mint(msg.sender, _amount);\n    \n        _SPV.transfer(msg.value);\n\n        //send ether to SPV wallet\n    \n        uint256 _depositeDate = now;\n        emit InvestorTransaction(msg.sender, _amount, _depositeDate);\n\n    }\n\n    // check investment \n\n\n    function InvestmentValue() public view returns (uint256) {\n        // first need to see whether this is a registered address\n        // require(_AddrsToInvestorNo[msg.sender] != 0, \"Not an investor\");\n\n        return khanyeziTokens.InvestorAmount(msg.sender);\n    }\n\n    function InvestorDepositeDate() public view returns (uint256) {\n        return khanyeziTokens.InvestorDate(msg.sender);\n    }\n\n    function interest() public view returns (uint256) {\n        uint256 _interest = khanyeziTokens.interest();\n        return _interest;\n    }\n\n\n}\n\n // check investment \n\n    /*\n\n    function CurrentInvestmentValue() public {\n        // first need to see whether this is a registered address\n        require(_AddrsToInvestorNo[msg.sender] != 0, \"Not an investor\");\n\n        //uint256 _InvestmentDate = khanyeziTokens._investments[msg.sender].depositeDate;\n        uint256 _InvestmentAmount = khanyeziTokens._investments[msg.sender].amount;\n        uint256 _interest = khanyeziTokens.interest();\n\n        uint256 _timeNow = now;\n        uint256 _approximateMonths = (_timeNow - _InvestmentDate) / 3.85802469136e-7;\n\n        uint256 CurrentValue = _InvestmentAmount*(1 + _interest/100)*_approximateMonths;\n        // can use message.sender as we want to map the address that calls the function\n        return CurrentValue;\n    }\n\n*/\n\n\n",
  "sourcePath": "/Users/julikapahl30/FinTech/GitHub/DApp/contracts/InvestmentVehicle.sol",
  "compiler": {
    "name": "solc",
    "version": "0.5.8+commit.23d335f2.Emscripten.clang"
  },
  "schemaVersion": "3.0.11",
  "updatedAt": "2019-07-22T14:58:47.978Z",
  "devdoc": {
    "methods": {}
  },
  "userdoc": {
    "methods": {}
  }
}