{
  "contractName": "InvestmentVehicle",
  "abi": [
    {
      "constant": true,
      "inputs": [],
      "name": "TotalInvestors",
      "outputs": [
        {
          "name": "",
          "type": "uint256"
        }
      ],
      "payable": false,
      "stateMutability": "view",
      "type": "function"
    },
    {
      "constant": true,
      "inputs": [],
      "name": "_totalAmount",
      "outputs": [
        {
          "name": "",
          "type": "uint256"
        }
      ],
      "payable": false,
      "stateMutability": "view",
      "type": "function"
    },
    {
      "constant": true,
      "inputs": [
        {
          "name": "",
          "type": "uint256"
        }
      ],
      "name": "investors",
      "outputs": [
        {
          "name": "InvestorAddrs",
          "type": "address"
        },
        {
          "name": "registerDate",
          "type": "uint256"
        }
      ],
      "payable": false,
      "stateMutability": "view",
      "type": "function"
    },
    {
      "constant": true,
      "inputs": [
        {
          "name": "",
          "type": "address"
        }
      ],
      "name": "_students",
      "outputs": [
        {
          "name": "StudentAddrs",
          "type": "address"
        },
        {
          "name": "applicationDate",
          "type": "uint256"
        },
        {
          "name": "_studentLoanAmount",
          "type": "uint256"
        },
        {
          "name": "loanStatus",
          "type": "uint256"
        },
        {
          "name": "RepaymentsLeft",
          "type": "uint256"
        }
      ],
      "payable": false,
      "stateMutability": "view",
      "type": "function"
    },
    {
      "constant": true,
      "inputs": [
        {
          "name": "",
          "type": "address"
        }
      ],
      "name": "_AddrsToInvestorNo",
      "outputs": [
        {
          "name": "",
          "type": "uint256"
        }
      ],
      "payable": false,
      "stateMutability": "view",
      "type": "function"
    },
    {
      "inputs": [
        {
          "name": "_token",
          "type": "address"
        },
        {
          "name": "_tokensNeeded",
          "type": "uint256"
        },
        {
          "name": "studentInterest",
          "type": "uint256"
        },
        {
          "name": "studentTerm",
          "type": "uint256"
        },
        {
          "name": "studentLoanAmount",
          "type": "uint256"
        },
        {
          "name": "studentRepayment",
          "type": "uint256"
        }
      ],
      "payable": false,
      "stateMutability": "nonpayable",
      "type": "constructor"
    },
    {
      "anonymous": false,
      "inputs": [
        {
          "indexed": false,
          "name": "OwnerAddrs",
          "type": "address"
        },
        {
          "indexed": false,
          "name": "amount",
          "type": "uint256"
        },
        {
          "indexed": false,
          "name": "depositeDate",
          "type": "uint256"
        }
      ],
      "name": "InvestorTransaction",
      "type": "event"
    },
    {
      "anonymous": false,
      "inputs": [
        {
          "indexed": false,
          "name": "OwnerAddrs",
          "type": "address"
        },
        {
          "indexed": false,
          "name": "_studentLoanAmount",
          "type": "uint256"
        },
        {
          "indexed": false,
          "name": "RepaymentsLeft",
          "type": "uint256"
        },
        {
          "indexed": false,
          "name": "loanStatus",
          "type": "uint256"
        }
      ],
      "name": "StundentTransaction",
      "type": "event"
    },
    {
      "constant": false,
      "inputs": [],
      "name": "registerInvestor",
      "outputs": [
        {
          "name": "",
          "type": "uint256"
        }
      ],
      "payable": false,
      "stateMutability": "nonpayable",
      "type": "function"
    },
    {
      "constant": true,
      "inputs": [],
      "name": "InvestorCount",
      "outputs": [
        {
          "name": "",
          "type": "uint256"
        }
      ],
      "payable": false,
      "stateMutability": "view",
      "type": "function"
    },
    {
      "constant": true,
      "inputs": [],
      "name": "totalTokensNeeded",
      "outputs": [
        {
          "name": "",
          "type": "uint256"
        }
      ],
      "payable": false,
      "stateMutability": "view",
      "type": "function"
    },
    {
      "constant": true,
      "inputs": [],
      "name": "totalSupply",
      "outputs": [
        {
          "name": "",
          "type": "uint256"
        }
      ],
      "payable": false,
      "stateMutability": "view",
      "type": "function"
    },
    {
      "constant": true,
      "inputs": [],
      "name": "StundentLoanAmount",
      "outputs": [
        {
          "name": "",
          "type": "uint256"
        }
      ],
      "payable": false,
      "stateMutability": "view",
      "type": "function"
    },
    {
      "constant": false,
      "inputs": [
        {
          "name": "_amount",
          "type": "uint256"
        }
      ],
      "name": "buyTokens",
      "outputs": [],
      "payable": true,
      "stateMutability": "payable",
      "type": "function"
    },
    {
      "constant": true,
      "inputs": [],
      "name": "InvestmentValue",
      "outputs": [
        {
          "name": "",
          "type": "uint256"
        }
      ],
      "payable": false,
      "stateMutability": "view",
      "type": "function"
    },
    {
      "constant": true,
      "inputs": [],
      "name": "InvestorDepositeDate",
      "outputs": [
        {
          "name": "",
          "type": "uint256"
        }
      ],
      "payable": false,
      "stateMutability": "view",
      "type": "function"
    },
    {
      "constant": true,
      "inputs": [],
      "name": "interest",
      "outputs": [
        {
          "name": "",
          "type": "uint256"
        }
      ],
      "payable": false,
      "stateMutability": "view",
      "type": "function"
    },
    {
      "constant": false,
      "inputs": [
        {
          "name": "_amount",
          "type": "uint256"
        }
      ],
      "name": "repayment",
      "outputs": [
        {
          "name": "",
          "type": "uint256"
        }
      ],
      "payable": false,
      "stateMutability": "nonpayable",
      "type": "function"
    }
  ],
  "bytecode": "0x608060405234801561001057600080fd5b5060405160c080611299833981018060405260c081101561003057600080fd5b81019080805190602001909291908051906020019092919080519060200190929190805190602001909291908051906020019092919080519060200190929190505050856000806101000a81548173ffffffffffffffffffffffffffffffffffffffff021916908373ffffffffffffffffffffffffffffffffffffffff16021790555084600281905550836003819055508260048190555081600581905550806006819055505050505050506111ae806100eb6000396000f3fe6080604052600436106100e85760003560e01c80635b2b23271161008a578063a97bd6d911610059578063a97bd6d9146103c6578063bba8bd201461042b578063c392f76614610456578063dac0af9414610481576100e8565b80635b2b2327146102745780636737b31e1461029f5780638a4ee260146102ee5780639e16574014610319576100e8565b80633bbeaab5116100c65780633bbeaab5146101715780633feb5f2b1461019c5780634b5e8d631461021e578063508d775314610249576100e8565b806311bf857a146100ed57806318160ddd146101185780633610724e14610143575b600080fd5b3480156100f957600080fd5b506101026104ac565b6040518082815260200191505060405180910390f35b34801561012457600080fd5b5061012d6104b2565b6040518082815260200191505060405180910390f35b61016f6004803603602081101561015957600080fd5b810190808035906020019092919050505061055b565b005b34801561017d57600080fd5b50610186610874565b6040518082815260200191505060405180910390f35b3480156101a857600080fd5b506101d5600480360360208110156101bf57600080fd5b810190808035906020019092919050505061087a565b604051808373ffffffffffffffffffffffffffffffffffffffff1673ffffffffffffffffffffffffffffffffffffffff1681526020018281526020019250505060405180910390f35b34801561022a57600080fd5b506102336108cb565b6040518082815260200191505060405180910390f35b34801561025557600080fd5b5061025e6109c9565b6040518082815260200191505060405180910390f35b34801561028057600080fd5b50610289610aa9565b6040518082815260200191505060405180910390f35b3480156102ab57600080fd5b506102d8600480360360208110156102c257600080fd5b8101908080359060200190929190505050610b89565b6040518082815260200191505060405180910390f35b3480156102fa57600080fd5b50610303610fe2565b6040518082815260200191505060405180910390f35b34801561032557600080fd5b506103686004803603602081101561033c57600080fd5b81019080803573ffffffffffffffffffffffffffffffffffffffff169060200190929190505050610fef565b604051808673ffffffffffffffffffffffffffffffffffffffff1673ffffffffffffffffffffffffffffffffffffffff1681526020018581526020018481526020018381526020018281526020019550505050505060405180910390f35b3480156103d257600080fd5b50610415600480360360208110156103e957600080fd5b81019080803573ffffffffffffffffffffffffffffffffffffffff169060200190929190505050611045565b6040518082815260200191505060405180910390f35b34801561043757600080fd5b5061044061105d565b6040518082815260200191505060405180910390f35b34801561046257600080fd5b5061046b611067565b6040518082815260200191505060405180910390f35b34801561048d57600080fd5b50610496611115565b6040518082815260200191505060405180910390f35b60075481565b60008060009054906101000a900473ffffffffffffffffffffffffffffffffffffffff1673ffffffffffffffffffffffffffffffffffffffff166318160ddd6040518163ffffffff1660e01b815260040160206040518083038186803b15801561051b57600080fd5b505afa15801561052f573d6000803e3d6000fd5b505050506040513d602081101561054557600080fd5b8101908080519060200190929190505050905090565b803410156105d1576040517f08c379a00000000000000000000000000000000000000000000000000000000081526004018080602001828103825260158152602001807f6e6f7420656e6f7567682066756e64732073656e74000000000000000000000081525060200191505060405180910390fd5b600254816000809054906101000a900473ffffffffffffffffffffffffffffffffffffffff1673ffffffffffffffffffffffffffffffffffffffff166318160ddd6040518163ffffffff1660e01b815260040160206040518083038186803b15801561063c57600080fd5b505afa158015610650573d6000803e3d6000fd5b505050506040513d602081101561066657600080fd5b81019080805190602001909291905050500111156106cf576040517f08c379a00000000000000000000000000000000000000000000000000000000081526004018080602001828103825260238152602001806111606023913960400191505060405180910390fd5b6000809054906101000a900473ffffffffffffffffffffffffffffffffffffffff1673ffffffffffffffffffffffffffffffffffffffff166340c10f1933836040518363ffffffff1660e01b8152600401808373ffffffffffffffffffffffffffffffffffffffff1673ffffffffffffffffffffffffffffffffffffffff16815260200182815260200192505050600060405180830381600087803b15801561077757600080fd5b505af115801561078b573d6000803e3d6000fd5b50505050600160009054906101000a900473ffffffffffffffffffffffffffffffffffffffff1673ffffffffffffffffffffffffffffffffffffffff166108fc349081150290604051600060405180830381858888f193505050501580156107f7573d6000803e3d6000fd5b5060004290507fc9a0c3cc476d0f138f0c79da50a58870728b7fc582f0e1cceab439e3a794740d338383604051808473ffffffffffffffffffffffffffffffffffffffff1673ffffffffffffffffffffffffffffffffffffffff168152602001838152602001828152602001935050505060405180910390a15050565b60025481565b6008818154811061088757fe5b90600052602060002090600202016000915090508060000160009054906101000a900473ffffffffffffffffffffffffffffffffffffffff16908060010154905082565b6000806001600860405180604001604052803373ffffffffffffffffffffffffffffffffffffffff168152602001428152509080600181540180825580915050906001820390600052602060002090600202016000909192909190915060008201518160000160006101000a81548173ffffffffffffffffffffffffffffffffffffffff021916908373ffffffffffffffffffffffffffffffffffffffff16021790555060208201518160010155505003905080600960003373ffffffffffffffffffffffffffffffffffffffff1673ffffffffffffffffffffffffffffffffffffffff168152602001908152602001600020819055508091505090565b60008060009054906101000a900473ffffffffffffffffffffffffffffffffffffffff1673ffffffffffffffffffffffffffffffffffffffff16633e854bbf336040518263ffffffff1660e01b8152600401808273ffffffffffffffffffffffffffffffffffffffff1673ffffffffffffffffffffffffffffffffffffffff16815260200191505060206040518083038186803b158015610a6957600080fd5b505afa158015610a7d573d6000803e3d6000fd5b505050506040513d6020811015610a9357600080fd5b8101908080519060200190929190505050905090565b60008060009054906101000a900473ffffffffffffffffffffffffffffffffffffffff1673ffffffffffffffffffffffffffffffffffffffff1663b38a8410336040518263ffffffff1660e01b8152600401808273ffffffffffffffffffffffffffffffffffffffff1673ffffffffffffffffffffffffffffffffffffffff16815260200191505060206040518083038186803b158015610b4957600080fd5b505afa158015610b5d573d6000803e3d6000fd5b505050506040513d6020811015610b7357600080fd5b8101908080519060200190929190505050905090565b600080600a60003373ffffffffffffffffffffffffffffffffffffffff1673ffffffffffffffffffffffffffffffffffffffff168152602001908152602001600020600201541415610c43576040517f08c379a00000000000000000000000000000000000000000000000000000000081526004018080602001828103825260168152602001807f6e6f206d6f72652072657061796d656e7473206475650000000000000000000081525060200191505060405180910390fd5b81600a60003373ffffffffffffffffffffffffffffffffffffffff1673ffffffffffffffffffffffffffffffffffffffff1681526020019081526020016000206002015403600a60003373ffffffffffffffffffffffffffffffffffffffff1673ffffffffffffffffffffffffffffffffffffffff1681526020019081526020016000206002018190555081600a60003373ffffffffffffffffffffffffffffffffffffffff1673ffffffffffffffffffffffffffffffffffffffff1681526020019081526020016000206004015403600a60003373ffffffffffffffffffffffffffffffffffffffff1673ffffffffffffffffffffffffffffffffffffffff16815260200190815260200160002060040181905550600654821015610df0576001600a60003373ffffffffffffffffffffffffffffffffffffffff1673ffffffffffffffffffffffffffffffffffffffff1681526020019081526020016000206003015401600a60003373ffffffffffffffffffffffffffffffffffffffff1673ffffffffffffffffffffffffffffffffffffffff168152602001908152602001600020600301819055505b6000600a60003373ffffffffffffffffffffffffffffffffffffffff1673ffffffffffffffffffffffffffffffffffffffff168152602001908152602001600020600201541415610e445760006006819055505b6000809054906101000a900473ffffffffffffffffffffffffffffffffffffffff1673ffffffffffffffffffffffffffffffffffffffff166342966c68836040518263ffffffff1660e01b815260040180828152602001915050600060405180830381600087803b158015610eb857600080fd5b505af1158015610ecc573d6000803e3d6000fd5b505050506000600a60003373ffffffffffffffffffffffffffffffffffffffff1673ffffffffffffffffffffffffffffffffffffffff1681526020019081526020016000206004015490506000600a60003373ffffffffffffffffffffffffffffffffffffffff1673ffffffffffffffffffffffffffffffffffffffff1681526020019081526020016000206003015490507f828b8b5c460d01f0434b3098386641b5fc622be143c19d9106e6d19a08e09e8f336005548484604051808573ffffffffffffffffffffffffffffffffffffffff1673ffffffffffffffffffffffffffffffffffffffff16815260200184815260200183815260200182815260200194505050505060405180910390a15050919050565b6000600880549050905090565b600a6020528060005260406000206000915090508060000160009054906101000a900473ffffffffffffffffffffffffffffffffffffffff16908060010154908060020154908060030154908060040154905085565b60096020528060005260406000206000915090505481565b6000600254905090565b6000806000809054906101000a900473ffffffffffffffffffffffffffffffffffffffff1673ffffffffffffffffffffffffffffffffffffffff1663c392f7666040518163ffffffff1660e01b815260040160206040518083038186803b1580156110d157600080fd5b505afa1580156110e5573d6000803e3d6000fd5b505050506040513d60208110156110fb57600080fd5b810190808051906020019092919050505090508091505090565b6000600a60003373ffffffffffffffffffffffffffffffffffffffff1673ffffffffffffffffffffffffffffffffffffffff1681526020019081526020016000206002015490509056fe5468657265206d75737420626520656e6f75676820746f6b656e73206f6e2073616c65a165627a7a72305820652adf463dc03e4aee06cf32b98c93303a4c40b1a8af4dc9a9f409781fc1a2c20029",
  "source": "pragma solidity ^0.5.0;\n\nimport \"./KhanyeziTokens.sol\";\n\ncontract InvestmentVehicle {\n\n/* Defines interface to the contract. */\n\n    KhanyeziTokens khanyeziTokens;\n\n\n    // call the owner of the contract SPV\n    address payable private _SPV; // will send funds to the wallet\n    uint256 public _totalAmount; // set a total amount needed every year we deploy a new contract\n    \n    uint _studentInterest;\n    uint _studentTerm;\n    // uint gracePeriod; /* Will be used to create data from which repayments are expected - dates can be in a separate contract */\n    uint _studentLoanAmount;\n    uint _studentRepayment;\n\n    // make constants for now\n\n    constructor(address _token,\n    uint256 _tokensNeeded,\n    uint256 studentInterest,\n    uint256 studentTerm,\n    uint256 studentLoanAmount,\n    uint256 studentRepayment) public\n    {\n       khanyeziTokens = KhanyeziTokens(_token);\n       _totalAmount = _tokensNeeded;\n       _studentInterest = studentInterest;\n       _studentTerm = studentTerm;\n       _studentLoanAmount = studentLoanAmount;\n       _studentRepayment = studentRepayment;\n    }\n\n    uint public TotalInvestors;\n\n    struct Investor {\n        address InvestorAddrs;\n        uint256 registerDate;\n    }\n\n    struct Student {\n        address StudentAddrs;\n        uint256 applicationDate;\n        uint256 _studentLoanAmount;\n        uint256 loanStatus; // +1 per late payment (monthly)\n        uint256 RepaymentsLeft;\n    }\n\n    Investor[] public investors;\n\n    // owner address to investor number \"index\"\n    mapping (address => uint256) public _AddrsToInvestorNo;\n    mapping (address => Student) public _students;\n\n    event InvestorTransaction (\n        address OwnerAddrs,\n        uint amount,\n        uint depositeDate\n    );\n\n    event StundentTransaction (\n        address OwnerAddrs,\n        uint256 _studentLoanAmount,\n        uint256 RepaymentsLeft,\n        uint256 loanStatus\n    );\n\n\n    // register investment, by updating the Investment struct from the KhanyeziTokens contract\n    function registerInvestor() public returns(uint) {\n        // get an instance of Investor using the input variables and push into the array of investors, returns the index\n        uint index = investors.push(Investor(msg.sender, now)) - 1;\n    \n        _AddrsToInvestorNo[msg.sender] = index; // to get the index for an address\n        // return the investor id\n        return index;\n  }\n\n    /* Returns the total number of holders of this currency. */\n    function InvestorCount() public view returns (uint256) {\n        return investors.length;\n    }\n    \n    function totalTokensNeeded() public view returns (uint256) {\n        return _totalAmount;\n    }\n    \n    function totalSupply() public view returns (uint256) {\n        return khanyeziTokens.totalSupply();\n    }\n\n    function StundentLoanAmount() public view returns (uint256) {\n       return _students[msg.sender]._studentLoanAmount;\n   }\n    \n    // public so that investors can call the function and buy tokens\n    // as the investor purchases tokens, tokens are minted\n    function buyTokens(uint256 _amount) public payable {\n        require(msg.value >= _amount, \"not enough funds sent\");\n        require(khanyeziTokens.totalSupply() + _amount <= _totalAmount, \"There must be enough tokens on sale\");\n\n        // call the transfer function to transfer from tokens_contract specfic token to investor (msg.sender)\n        khanyeziTokens.mint(msg.sender, _amount);\n    \n        _SPV.transfer(msg.value);\n\n        //send ether to SPV wallet\n    \n        uint256 _depositeDate = now;\n        emit InvestorTransaction(msg.sender, _amount, _depositeDate);\n    }\n\n    // check investment \n\n\n    function InvestmentValue() public view returns (uint256) {\n        // first need to see whether this is a registered address\n        // require(_AddrsToInvestorNo[msg.sender] != 0, \"Not an investor\");\n\n        return khanyeziTokens.InvestorAmount(msg.sender);\n    }\n\n    function InvestorDepositeDate() public view returns (uint256) {\n        return khanyeziTokens.InvestorDate(msg.sender);\n    }\n\n    function interest() public view returns (uint256) {\n        uint256 _interest = khanyeziTokens.interest();\n        return _interest;\n    }\n\n    /* repayment function */\n    /* Tracking and transferring repayments */\n    /* Returns the outstanding balance after payment was made*/\n    /* Calculates next payment due and the date */\n    /* Keeps track of payment shortfalls and underpayments*/\n\n    function repayment(uint _amount) public returns (uint256){\n        require(_students[msg.sender]._studentLoanAmount != 0, \"no more repayments due\");\n        _students[msg.sender]._studentLoanAmount = _students[msg.sender]._studentLoanAmount - _amount;\n        _students[msg.sender].RepaymentsLeft = _students[msg.sender].RepaymentsLeft - _amount;\n\n        if (_amount < _studentRepayment) { /* if there is a shortfall on the repayment */\n            _students[msg.sender].loanStatus = _students[msg.sender].loanStatus + 1;\n        }\n\n        if (_students[msg.sender]._studentLoanAmount == 0){\n            _studentRepayment = 0;\n        }\n\n        khanyeziTokens.burn(_amount);\n\n        uint256 repaymentsLeft = _students[msg.sender].RepaymentsLeft;\n        uint256 loanStatus = _students[msg.sender].loanStatus;\n\n        emit StundentTransaction (msg.sender, _studentLoanAmount, repaymentsLeft, loanStatus);\n\n    }\n\n\n\n\n}\n\n // check investment \n\n    /*\n\n    function CurrentInvestmentValue() public {\n        // first need to see whether this is a registered address\n        require(_AddrsToInvestorNo[msg.sender] != 0, \"Not an investor\");\n\n        //uint256 _InvestmentDate = khanyeziTokens._investments[msg.sender].depositeDate;\n        uint256 _InvestmentAmount = khanyeziTokens._investments[msg.sender].amount;\n        uint256 _interest = khanyeziTokens.interest();\n\n        uint256 _timeNow = now;\n        uint256 _approximateMonths = (_timeNow - _InvestmentDate) / 3.85802469136e-7;\n\n        uint256 CurrentValue = _InvestmentAmount*(1 + _interest/100)*_approximateMonths;\n        // can use message.sender as we want to map the address that calls the function\n        return CurrentValue;\n    }\n\n*/\n\n\n",
  "sourcePath": "/Users/julikapahl30/FinTech/GitHub/DApp/contracts/InvestmentVehicle.sol",
  "compiler": {
    "name": "solc",
    "version": "0.5.8+commit.23d335f2.Emscripten.clang"
  },
  "schemaVersion": "3.0.11",
  "updatedAt": "2019-07-23T13:38:01.356Z",
  "devdoc": {
    "methods": {}
  },
  "userdoc": {
    "methods": {}
  }
}